:020000040800F2
:10000000480E0020A1010008112600083D1C000830
:10001000DD250008A1090008592F00080000000094
:10002000000000000000000000000000612900083E
:100030005D1B00080000000079270008792A0008ED
:10004000BB010008BB010008BB010008BB010008A0
:10005000BB010008BB010008BB010008BB01000890
:10006000BB010008BB010008BB010008BB01000880
:10007000BB010008BB010008BB010008BB01000870
:10008000BB010008E5160008BB010008BB01000821
:10009000BB010008BB010008BB010008BB01000850
:1000A000BB010008BB010008BB010008BB01000840
:1000B000BB010008BB010008BB010008BB01000830
:1000C000BB010008BB010008BB010008BB01000820
:1000D000BB010008512C0008A92C0008012D0008C4
:1000E000BB010008BB010008BB010008BB01000800
:1000F000BB010008BB010008BB010008391700085C
:10010000BB010008BB010008BB010008BB010008DF
:10011000BB010008F92B0008BB010008BB01000867
:10012000BB010008BB010008BB010008BB010008BF
:10013000BB010008BB010008BB010008BB010008AF
:10014000BB010008BB010008BB010008BB0100089F
:10015000BB0100088D170008E1170008192D0008E1
:10016000BB010008BB010008BB010008BB0100087F
:10017000BB010008BB010008BB010008BB0100086F
:10018000BB010008BB010008DFF810D000F012FA34
:100190000048004711310008AFF30080480E0020EE
:1001A0000648804706480047FEE7FEE7FEE7FEE711
:1001B000FEE7FEE7FEE7FEE7FEE7FEE7BD2A0008F2
:1001C0008901000840EA01039B0703D009E008C940
:1001D000121F08C0042AFAD203E011F8013B00F80C
:1001E000013B521EF9D27047D2B201E000F8012B58
:1001F000491EFBD270470022F6E710B513460A46A7
:1002000004461946FFF7F0FF204610BD2DE9FE4FCA
:1002100081EA030404F0004421F0004100944FF00F
:10022000000B23F0004350EA01045ED052EA0304BD
:100230005BD0C3F30A54C1F30A552C44A4F2F3343F
:100240000194A0FB0254C1F3130141F48011C3F3E4
:10025000130343F4801301FB024400FB034E840AA2
:10026000970A44EA815447EA8357A4FB076802953A
:100270008D0A05FB07854FEA932C04FB0C542705D8
:10028000029D4FEA065847EA1637B5EB08056EEBB4
:10029000070C870E920E47EA811742EA8312A7FBEA
:1002A0000201B6EB0B0164EB00042B0D43EA0C33A7
:1002B0005E1844EB1C50DA465146E7FB0201C5F3D9
:1002C00013044FEA0B3343EA14534FEA0432019C00
:1002D00043EA0603A4F10C040294009CCDE900B4A7
:1002E00000F019F903B0BDE8F08F00200146F9E7EE
:1002F0002DE9F04D81EA030404F0004B21F00045A4
:1003000014464FF0000A23F0004150EA050220D0C5
:1003100054EA01021DD0C5F30A570246C5F3130380
:10032000C1F31300C1F30A5640F4801543F480135F
:10033000A7EB0608101BD64608F2FD3873EB050044
:1003400002D308F1010801E092185B41B8F1000FF7
:1003500003DA00200146BDE8F08D00204FF4801143
:10036000064684460EE0171B73EB050705D3121BE8
:1003700063EB050306434CEA010C49084FEA3000E1
:1003800092185B4150EA0107EDD152EA030012D006
:1003900082EA040083EA0501084305D0101BAB4143
:1003A00006D20122002306E000224FF0004302E0C3
:1003B0006FF0010253101AEB06004CEB085110EBE2
:1003C0000A0041EB0B01BDE8F04D00F095B870B5A7
:1003D000C1F30A5201F000450024C1F3130140F2B9
:1003E000FF3341F480119A4201DA002070BD40F2DF
:1003F00033439A42A2F2334203DC524200F035F812
:1004000000E090402C43F1D0404270BD00F000422B
:1004100030F000400AD0C10D01F56071C0F3160044
:1004200042EA0151C20840071143704700200146CB
:10043000704701F0004330B421F0004150EA01025E
:1004400006D00A0DA2F56072C1F31301002A02DC86
:1004500030BC00207047440F44EAC104C100E018DA
:1004600030BC00EBC25000F010B8202A04DB203A68
:1004700021FA02F00021704721FA02F3D040C2F1C4
:10048000200291400843194670470029A8BF7047D1
:10049000401C490008BF20F00100704710B4B0FABA
:1004A00080FC00FA0CF050EA010404BF10BC704755
:1004B00049B1CCF1200421FA04F411FA0CF118BF6F
:1004C000012121430843A3EB0C01CB1D4FEA00613E
:1004D0004FEA102042BF002010BC704700EBC35011
:1004E00010440029A4BF10BC7047401C490008BF3D
:1004F00020F0010010BC704710B5141E73F1000409
:1005000008DA401C41F1000192185B411A4301D105
:1005100020F0010010BD2DE9F04D92469B4611B12F
:10052000B1FA81F202E0B0FA80F22032904600F097
:1005300053F804460F4640EA0A0041EA0B015346CD
:100540005A46084313D0114653EA010019D0C8F1A6
:1005500040025046FFF789FF05460E465046594671
:10056000424600F039F8084305D0012004E0204657
:100570003946BDE8F08D0020054346EAE0762C437D
:1005800037430A986305E40AA0EB08000022FD0A3D
:1005900044EA47540A3002D500200146E9E7010544
:1005A00010196941DDE9084500196941BDE8F04DC0
:1005B000A2E70000064C074D06E0E06840F00103AA
:1005C00094E8070098471034AC42F6D3FFF7E0FDFB
:1005D000B8320008D8320008202A04DB203A00FA9A
:1005E00002F1002070479140C2F1200320FA03F38A
:1005F000194390407047000010B5044634B1012CF7
:1006000044D0022C70D0032C6FD1B5E0C4EBC400F1
:1006100000EB4410734901EB4000807820B10128C1
:1006200011D002282FD11FE0C4EBC40000EB44100E
:100630006C4A02EB40014E226B48FFF7C3FD6A484B
:1006400002F0F4FC20E0C4EBC40000EB4410654A67
:1006500002EB40014E2264488C30FFF7B3FD624844
:100660008C3002F0E3FC0FE0C4EBC40000EB44105C
:100670005C4A02EB40014E225C48FFF7A3FD5B4859
:1006800002F0D4FC00E000BF00BFA8E0C4EBC4004F
:1006900000EB4410534901EB4000807820B1012861
:1006A00013D0022833D121E0C4EBC40000EB441086
:1006B0004C4A02EB40014E224C488C30FFF782FD41
:1006C0004A488C3002F0B2FC22E0C4EBC40000EBDC
:1006D0004410444A02EB40014E224548FFF772FDA8
:1006E000434802F0A3FC13E014E077E0C4EBC4003D
:1006F00000EB44103B4A02EB40014E223C488C3058
:10070000FFF760FD3A488C3002F090FC00E000BF3B
:1007100000BF64E0A01EC0EBC00101EB40103549F2
:1007200001EB4000807810B1012822D10FE0A01E1B
:10073000C0EBC00202EB40102E4A02EB40014E22F9
:100740002D48FFF73FFD2C4802F070FC12E0A01E80
:10075000C0EBC00202EB4010264A02EB40014E22E1
:1007600025488C30FFF72EFD23488C3002F05EFCCC
:1007700000E000BF00BF32E0A01EC0EBC00101EBF3
:1007800040101C4901EB4000807810B1012822D1B3
:100790000FE0A01EC0EBC00202EB4010154A02EBB6
:1007A00040014E221548FFF70DFD144802F03EFCB3
:1007B00012E0A01EC0EBC00202EB40100D4A02EB9B
:1007C00040014E2208488C38FFF7FCFC06488C3864
:1007D00002F02CFC00E000BF00BF00E000BF00BF43
:1007E00010BD000080030020D4060020EC0700208C
:1007F00004090020E4020020A4040020BC0500201D
:1008000030B5ADF52B7D054600241AE0062C0BDA39
:100810004F4931F8142004EB041101AB03EB8100C4
:10082000012101F0DDFE0AE04A4931F8142004EB11
:10083000041101AB03EB8100002101F0D1FE601C2B
:10084000C4B20A2CE2DB002455E0222201A942486E
:10085000FFF7B8FC01F016FB222234A93E482230F3
:10086000FFF7B0FC01F040FC222267A93B48FFF7EC
:10087000A9FC01F06BFD222289A938482230FFF73C
:10088000A1FC01F09BFE022002F0AAFB222212A989
:100890003148FFF797FC01F0F5FA222245A92E48CE
:1008A0002230FFF78FFC01F01FFC222278A92B4891
:1008B000FFF788FC01F04AFD22229AA9274822303E
:1008C000FFF780FC01F07AFE022002F089FB222271
:1008D00023A92148FFF776FC01F0D4FA222256A979
:1008E0001D482230FFF76EFC01F0FEFB022002F0F3
:1008F00077FB601CC4B21E2CA7DB002022E0062878
:1009000010DAC0EBC00101EB810205F50C7101EBBF
:10091000820191ED1C0A05F5AF6101EB800181EDCB
:10092000000A0DE0C0EBC00101EB810105EB810184
:1009300091ED1C0A05F5B26101EB800181ED000A21
:10094000411C48B20A28DADB0DF52B7D30BD0000D2
:100950004800002054000020600400201C040020F7
:1009600010B501F06DF9012002F03AFB01F09AFA9E
:10097000012002F035FB01F0C7FB012002F030FB43
:1009800001F0F4FC012002F02BFB01F07FFE0120BE
:1009900002F026FB02F0C6F8012002F021FB10BD98
:1009A00000BFFEE7F0B504460D46002600200146D4
:1009B000002B7CD100BF08E09779DFF818C40CF851
:1009C0000670771CBEB2521C401CA842F4DB04F037
:1009D0000100E0B3481CC1B2FE484078FD4F3F78AB
:1009E00040EA072000B2FC4FA7F84000F948C07861
:1009F000F84FBF7840EA072007B2F748A0F84270E6
:100A0000F4484079F34F3F7940EA072007B2F248B3
:100A1000A0F84470EF48C079EE4FBF7940EA072054
:100A200007B2ED48A0F84670EA48407AE94F3F7AAD
:100A300040EA072007B2E848A0F84870E548C07AC5
:100A4000E44FBF7A40EA072007B2E34800E001E044
:100A5000A0F84A7004F0020000287CD001EB4100AD
:100A6000012707EB8000DB4F385C01EB4107DFF823
:100A700064C31CF8277040EA072000B2D64FA7F8DD
:100A80005A0001EB4100032707EB80006746385C02
:100A900001EB41074FF0020C0CEB8707DFF834C382
:100AA0001CF8077040EA072007B2CB4800E0FCE3DF
:100AB000A0F85C7001EB4100052707EB800067465A
:100AC000385C01EB41074FF0040C0CEB8707DFF8B3
:100AD00004C31CF8077040EA072007B2BE48A0F81C
:100AE0005E7001EB4100072707EB80006746385C2A
:100AF00001EB41074FF0060C0CEB8707DFF8D4C27F
:100B00001CF8077040EA072007B2B348A0F86070ED
:100B100001EB4100092707EB80006746385C01EBD9
:100B200041074FF0080C0CEB8707DFF8A8C21CF850
:100B3000077040EA072007B2A748A0F8627001EBEF
:100B400041000B2707EB80006746385C01EB41074B
:100B50004FF00A0C00E00DE00CEB8707DFF874C2E1
:100B60001CF8077040EA072007B29B48A0F86470A1
:100B7000481CC1B204F0040000287CD001EB410005
:100B8000012707EB8000934F385C01EB4107DFF84A
:100B900044C21CF8277040EA072000B28E4FA7F825
:100BA000740001EB4100032707EB80006746385CC7
:100BB00001EB41074FF0020C0CEB8707DFF814C282
:100BC0001CF8077040EA072007B28348A0F8767047
:100BD00001EB4100052707EB80006746385C01EB1D
:100BE00041074FF0040C0CEB8707DFF8E8C11CF855
:100BF000077040EA072007B27748A0F8787001EB49
:100C00004100072707EB80006746385C01EB41078E
:100C10004FF0060C0CEB8707DFF8B8C11CF8077023
:100C200040EA072007B26C48A0F87A7001EB410057
:100C3000092707EB80006746385C01EB41074FF05E
:100C4000080C0CEB8707DFF88CC11CF8077040EA32
:100C5000072007B26048A0F87C7001EB41000B2729
:100C600007EB80006746385C01EB41074FF00A0C48
:100C70000CEB870700E00BE0DFF858C11CF80770A9
:100C800040EA072007B25448A0F87E70481CC1B261
:100C900004F0080000287CD001EB4100012707EB9D
:100CA00080004C4F385C01EB4107DFF828C11CF88D
:100CB000277040EA072000B2474FA7F88E0001EBEB
:100CC0004100032707EB80006746385C01EB4107D2
:100CD0004FF0020C0CEB8707DFF8F8C01CF8077028
:100CE00040EA072007B23C48A0F8907001EB4100B1
:100CF000052707EB80006746385C01EB41074FF0A2
:100D0000040C0CEB8707DFF8CCC01CF8077040EA36
:100D1000072007B23048A0F8927001EB4100072786
:100D200007EB80006746385C01EB41074FF0060C8B
:100D30000CEB8707DFF89CC01CF8077040EA07201F
:100D400007B22548A0F8947001EB4100092707EB92
:100D500080006746385C01EB41074FF0080C0CEB54
:100D60008707DFF870C01CF8077040EA072007B259
:100D70001948A0F8967001EB41000B2707EB8000A3
:100D80006746385C01EB41074FF00A0C0CEB870714
:100D900000E00BE0DFF83CC01CF8077040EA0720D9
:100DA00007B20D48A0F89870481CC1B204F01000BA
:100DB00000287DD001EB4100012707EB8000054FA3
:100DC000385C01EB4107DFF80CC01CF8277040EAE3
:100DD000072003E09C000020C800002000B2FE4F66
:100DE000A7F8A80001EB4100032707EB8000674646
:100DF000385C01EB41074FF0020C0CEB8707DFF882
:100E0000DCC31CF8077040EA072007B2F248A0F8DC
:100E1000AA7001EB4100052707EB80006746385CAC
:100E200001EB41074FF0040C0CEB8707DFF8ACC374
:100E30001CF8077040EA072007B2E748A0F8AC703A
:100E400001EB4100072707EB80006746385C01EBA8
:100E500041074FF0060C0CEB8707DFF880C31CF846
:100E6000077040EA072007B2DB48A0F8AE7001EB3C
:100E70004100092707EB80006746385C01EB41071A
:100E80004FF0080C0CEB8707DFF850C31CF8077015
:100E900040EA072007B2D048A0F8B07001EB41004B
:100EA0000B2707EB80006746385C01EB410700E049
:100EB0000FE04FF00A0C0CEB8707DFF820C31CF89B
:100EC000077040EA072007B2C348A0F8B270481C78
:100ED000C1B204F0200000287ED001EB41000127C0
:100EE00007EB8000BD4F385C01EB4107DFF8ECC237
:100EF0001CF8277040EA072000B2B74FA7F8C200DD
:100F000001EB4100032707EB80006746385C01EBEB
:100F100041074FF0020C0CEB8707DFF8C0C21CF84A
:100F2000077040EA072007B2AB48A0F8C47001EB95
:100F30004100052707EB80006746385C01EB41075D
:100F40004FF0040C0CEB8707DFF890C21CF8077019
:100F500040EA072007B2A048A0F8C67001EB4100A4
:100F6000072707EB80006746385C01EB41074FF02D
:100F7000060C0CEB8707DFF864C21CF8077040EA28
:100F8000072007B29448A0F8C87001EB4100092778
:100F900007EB80006746385C01EB41074FF0080C17
:100FA0000CEB8707DFF834C21CF8077040EA072013
:100FB00007B28948A0F8CA7001EB41000B2707EB84
:100FC00080006746385C01EB41074FF00A0C0CEBE0
:100FD0008707DFF808C200E009E01CF8077040EA64
:100FE000072007B27C48A0F8CC70481CC1B204F0BE
:100FF000400000287ED001EB4100012707EB800074
:10100000764F385C01EB4107DFF8D0C11CF8277040
:1010100040EA072000B2704FA7F8DC0001EB410066
:10102000032707EB80006746385C01EB41074FF070
:10103000020C0CEB8707DFF8A4C11CF8077040EA2C
:10104000072007B26448A0F8DE7001EB41000527D5
:1010500007EB80006746385C01EB41074FF0040C5A
:101060000CEB8707DFF874C11CF8077040EA072013
:1010700007B25948A0F8E07001EB4100072707EBE1
:1010800080006746385C01EB41074FF0060C0CEB23
:101090008707DFF848C11CF8077040EA072007B24D
:1010A0004D48A0F8E27001EB4100092707EB8000F2
:1010B0006746385C01EB41074FF0080C0CEB8707E3
:1010C000DFF818C11CF8077040EA072007B2424851
:1010D000A0F8E47001EB41000B2707EB80006746A6
:1010E000385C01EB41074FF00A0C0CEB8707DFF887
:1010F000ECC000E009E01CF8077040EA072007B2E6
:101100003548A0F8E670481CC1B204F08000002801
:1011100061D001EB4100012707EB80002F4F385CC5
:1011200001EB4107DFF8B4C01CF8277040EA072044
:1011300000B2294FA7F8F60001EB4100032707EBA7
:1011400080006746385C01EB41074FF0020C0CEB66
:101150008707DFF888C01CF8077040EA072007B24D
:101160001D48A0F8F87001EB4100052707EB80004F
:101170006746385C01EB41074FF0040C0CEB870726
:10118000DFF858C01CF8077040EA072007B2124881
:10119000A0F8FA7001EB4100072707EB80006746D3
:1011A000385C01EB41074FF0060C0CEB8707DFF8CA
:1011B0002CC01CF8077040EA072007B20648A0F8C8
:1011C000FC7001EB4100092707EB80006746385CA3
:1011D00001EB410704E02AE0C80000209C00002049
:1011E0004FF0080C0CEB8707DFF800C41CF8077001
:1011F00040EA072007B2FE48A0F8FE7001EB41006C
:101200000B2707EB80006746385C01EB41074FF086
:101210000A0C0CEB8707DFF8D4C31CF8077040EA10
:10122000072007B2F248A0F80071481CC1B204F4CC
:10123000807000287ED001EB4100012707EB800081
:10124000EA4F385C01EB4107DFF8A0C31CF82770B8
:1012500040EA072000B2E64FA7F8100101EB410079
:10126000032707EB80006746385C01EB41074FF02E
:10127000020C0CEB8707DFF874C31CF8077040EA18
:10128000072007B2DA48A0F8127101EB41000527E8
:1012900007EB80006746385C01EB41074FF0040C18
:1012A0000CEB8707DFF844C300E0F6E11CF8077099
:1012B00040EA072007B2CE48A0F8147101EB4100C4
:1012C000072707EB80006746385C01EB41074FF0CA
:1012D000060C0CEB8707DFF814C31CF8077040EA14
:1012E000072007B2C248A0F8167101EB4100092798
:1012F00007EB80006746385C01EB41074FF0080CB4
:101300000CEB8707DFF8E4C21CF8077040EA0720FF
:1013100007B2B748A0F8187101EB41000B2707EBA3
:1013200080006746385C01EB41074FF00A0C0CEB7C
:10133000870700E00BE0DFF8B4C21CF8077040EA52
:10134000072007B2AA48A0F81A71481CC1B204F4D9
:10135000007000287ED001EB4100012707EB8000E0
:10136000A24F385C01EB4107DFF880C21CF8277000
:1013700040EA072000B29E4FA7F82A0101EB410086
:10138000032707EB80006746385C01EB41074FF00D
:10139000020C0CEB8707DFF854C21CF8077040EA18
:1013A000072007B29248A0F82C7101EB41000527F5
:1013B00007EB80006746385C01EB41074FF0040CF7
:1013C0000CEB8707DFF824C21CF8077040EA0720FF
:1013D00007B28748A0F82E7101EB4100072707EB01
:1013E00080006746385C01EB41074FF0060C0CEBC0
:1013F0008707DFF8F8C11CF8077040EA072007B23A
:101400007B48A0F8307101EB4100092707EB800011
:101410006746385C01EB41074FF0080C0CEB87077F
:10142000DFF8C8C11CF8077040EA072007B270480F
:10143000A0F8327101EB41000B2707EB80006746F3
:10144000385C01EB41074FF00A0C0CEB8707DFF823
:101450009CC100E009E01CF8077040EA072007B2D1
:101460006348A0F83471481CC1B204F480600028BD
:101470007ED001EB4100012707EB80005B4F385C19
:1014800001EB4107DFF864C11CF8277040EA072030
:1014900000B2574F388001EB4100032707EB800073
:1014A0006746385C01EB41074FF0020C0CEB8707F5
:1014B000DFF838C11CF8077040EA072000B24C4F33
:1014C000788001EB4100052707EB80006746385C18
:1014D00001EB41074FF0040C0CEB8707DFF80CC160
:1014E0001CF8077040EA072000B2414FB88001EBBA
:1014F0004100072707EB80006746385C01EB410796
:101500004FF0060C0CEB8707DFF8E0C01CF8077003
:1015100040EA072000B2364FF88001EB410009276E
:1015200007EB80006746385C01EB41074FF0080C81
:101530000CEB8707DFF8B4C01CF8077040EA0720FF
:1015400000B22B4F388101EB41000B2707EB8000E5
:101550006746385C01EB41074FF00A0C0CEB87073C
:10156000DFF888C01CF8077040EA072000B200E0EE
:1015700003E01F4F7881481CC1B204F400600028CA
:101580007DD001EB4100012707EB8000174F385C4D
:1015900001EB4107DFF854C01CF8277040EA072030
:1015A00000B2134F388401EB4100032707EB8000A2
:1015B0006746385C01EB41074FF0020C0CEB8707E4
:1015C000DFF828C01CF8077040EA072007B2084877
:1015D000478401EB4100052707EB80006746385C34
:1015E00001EB41074FF0040C04E000009C000020D8
:1015F000C80000200CEB8707DFF8A4C01CF80770B8
:1016000040EA072007B22748878401EB41000727FB
:1016100007EB80006746385C01EB41074FF0060C92
:101620000CEB8707DFF878C01CF8077040EA07204A
:1016300007B21C48C78401EB4100092707EB800073
:101640006746385C01EB41074FF0080C0CEB87074D
:10165000DFF84CC01CF8077040EA072007B21148B9
:10166000078501EB41000B2707EB80006746385CDC
:1016700001EB41074FF00A0C0CEB870700E00BE091
:10168000DFF81CC01CF8077040EA072007B20548C5
:101690004785481CC0B2014600BF00BFF0BD000036
:1016A0009C000020C800002010B500F005FA094891
:1016B000008868B901200749088001F003F930214A
:1016C0000548FEF798FD0020044908700449087099
:1016D00010BD0000360000206C0000203C000020FF
:1016E0003D00002010B51048406800F40010C8B15B
:1016F0000E490D48A03000F09DF80C490A48A03072
:1017000000F0B2F800BF4021094801F04FFB00286B
:10171000F9D04021064801F02BFB4FF40051054859
:1017200000F088FA10BD0000006002400000202098
:10173000004400400018024010B51148406800F015
:101740000060D8B14FF020510D48B83000F072F869
:101750004FF020510A48B83000F086F800BF402111
:10176000084801F023FB0028F9D04021054801F08A
:10177000FFFA4FF48041044800F05CFA10BD00000D
:1017800000600240005000400018024010B51048B0
:10179000006800F40010C8B10E490D489C3000F0FC
:1017A00049F80C490A489C3000F05EF800BF40211F
:1017B000094801F0FBFA0028F9D04021064801F061
:1017C000D7FA4FF48051054800F034FA10BD0000FC
:1017D0000464024000002020001401400018024070
:1017E00010B51148006800F00060D8B14FF02051EA
:1017F0000D48B43000F01EF84FF020510A48B430C4
:1018000000F032F800BF4021084801F0CFFA00286C
:10181000F9D04021054801F0ABFA4FF400610448CB
:1018200000F008FA10BD00000464024000100140FE
:10183000001802400246094B9A4201D2084801E0D2
:101840000648103801F000531BB1064B0B40C36033
:1018500002E0044B0B4083607047000010640240BC
:10186000006002407D0F7D0F0246094B9A4201D273
:10187000084801E00648103801F000531BB1064B40
:101880000B40C36002E0044B0B40836070470000D4
:1018900010640240006002407D0F7D0F21B102689C
:1018A00042F00102026003E0026822F001020260DD
:1018B00070470000016821F0010101600021016012
:1018C00041608160C1600161212141614A498842D2
:1018D00004D13D21484A103A91608CE046491831C4
:1018E000884205D14FF47461434A103A916082E016
:1018F00041493031884205D14FF474113E4A103AC3
:10190000916078E03C494831884205D14FF07461DC
:10191000394A103A91606EE037496031884204D10B
:101920003649354A103AD16065E03349783188420A
:1019300004D13349304A103AD1605CE02E499031ED
:10194000884204D12F492C4A103AD16053E02A49E9
:10195000A831884205D14FF03D51274A103AD16055
:1019600049E02949884204D13D21274A083A1160BB
:1019700041E025491831884205D14FF47461224A6B
:10198000083A116037E020493031884205D14FF4E0
:1019900074111D4A083A11602DE01B4948318842F4
:1019A00005D14FF07461184A083A116023E01649D6
:1019B0006031884204D11149134A121F11601AE0A4
:1019C00011497831884204D10D490F4A121F116024
:1019D00011E00D499031884204D10A490A4A121F88
:1019E000116008E00849A831884204D14FF03D5108
:1019F000054A121F11607047106002403D00002030
:101A0000400F002000003D201064024001460020ED
:101A10000A6802F001020AB1012000E000207047CC
:101A200010B501F080034BB122B1436943F080034C
:101A3000436103E0436923F08003436180290BD0B5
:101A40002AB1036801F01E042343036004E0036825
:101A500001F01E04A343036010BD000010B5002276
:101A60000268134B1A40CC680B6823434C6923432C
:101A70008C692343CC6923430C6A23434C6A234378
:101A80008C6A23434C6B23438C6B23431A430260C1
:101A9000426922F00702D1E90B3423431A43426121
:101AA0000B6943604B6883608B68C36010BD0000A6
:101AB0003F801CF04160704710B51F48008860B936
:101AC0001E48006800881E490860084600681D49D5
:101AD00008600120184908801BE01B480088012885
:101AE00017D1164800680088154908600846008824
:101AF00014490988401A84B211480088114909889C
:101B0000401A80B211490988884202DD00200E493E
:101B100008800D48008870B90D48007858B10C480D
:101B20000078112803DB00200A49088003E03021F7
:101B30000948FEF760FB10BD380000202800002097
:101B40004000002044000020340000203A00002023
:101B50003C000020360000206C0000207047F0B5EB
:101B60000A4600210023002400BF3DE0012505FABC
:101B700001F3156805EA03049C4234D105684F005F
:101B80000326BE40B543056015794E00B540066892
:101B9000354305601579012D02D01579022D16D136
:101BA00085684F000326BE40B543856055794E00D9
:101BB000B540866835438560456801268E40B5434B
:101BC0004560456896798E40B6B235434560C56834
:101BD0004F000326BE40B543C560D5794E00B540E1
:101BE000C6683543C560491C1029BFD3F0BDF0B5A8
:101BF000002300244D07ED0E02FA05F3CE1000F18C
:101C0000200555F826504E07F70E0F26BE40B54367
:101C1000CF1000F1200646F82750CE1000F1200525
:101C200055F8265045EA0304CE1000F1200545F88A
:101C30002640F0BD418370470183704700BFFEE737
:101C400000B597B00121102000F0B8FD0121084631
:101C500000F094FD0121402000F090FD07220921B1
:101C60008148FFF7C4FF07220A217F48FFF7BFFF23
:101C70004FF40060159001208DF8580002208DF877
:101C8000590015A97948FFF76AFF4FF400617748BA
:101C9000FFF7D2FF0121764801F04EF94FF40070B2
:101CA000159002208DF858008DF8590001208DF80C
:101CB0005B0000208DF85A0015A96B48FFF74FFF15
:101CC0004FF48060159002208DF8580015A96648E1
:101CD000FFF745FF674811900020ADF84800ADF8C8
:101CE0004A00ADF84C00ADF850000C20ADF84E00A5
:101CF00011A95F4801F0B6F8012240F224415C4886
:101D000001F08BF801215A4801F03BF801224021F3
:101D1000574801F042F801228021554801F03DF872
:101D20004021534801F024F825208DF84000002080
:101D30008DF841008DF8420001208DF8430010A875
:101D400000F068FC46208DF8400000208DF841002E
:101D500001208DF842008DF8430010A800F05AFCD5
:101D60000121880500F00AFD4348FFF7A3FD00BFED
:101D70004148FFF74BFE0028FAD14FF00060019078
:101D80003B48001D02903D480390002004904E20E7
:101D90000590002006904FF4806007900020089086
:101DA00009904FF480700A9000020B9000200C9074
:101DB00003200D9000200E900F9001A92E48FFF7F0
:101DC0004DFE012210212C48FFF72AFE4FF08151D1
:101DD0002948FFF72FFD01212748FFF75FFD01216B
:101DE000880500F0CBFC24487830FFF763FD00BF86
:101DF00021487830FFF70AFE0028F9D14FF0006043
:101E000001901B48001D02901D4803904020049043
:101E100022200590002006904FF48060079000205B
:101E2000089009900A904FF440300B9000200C90DD
:101E300003200D9000200E900F9001A90E487830DD
:101E4000FFF70CFE00210C487830FFF727FD012238
:101E5000102109487830FFF7E3FD4FF40061034893
:101E6000FFF7E8FE17B000BD000002400018024076
:101E700000100140808D5B00406402408003002020
:101E80006004002010B54FF400610448FFF7D4FE51
:101E900001210348FFF702FD10BD000000180240B9
:101EA000B864024000B597B00121202000F086FC04
:101EB0000121042000F062FC0121402000F05EFCC2
:101EC000082206218048FFF792FE082207217E485B
:101ED000FFF78DFE4FF48050159001208DF85800CB
:101EE00002208DF8590015A97848FFF738FE4FF405
:101EF00080517648FFF7A0FE0121754801F01CF8DB
:101F00004020159002208DF858008DF859000120CE
:101F10008DF85B0000208DF85A0015A96A48FFF77C
:101F20001EFE8020159002208DF8580015A96648E5
:101F3000FFF715FE674811900020ADF84800ADF896
:101F40004A00ADF84C00ADF850000C20ADF84E0042
:101F500011A95F4800F086FF012240F224415C484D
:101F600000F05BFF01215A4800F00BFF01224021E5
:101F7000574800F012FF01228021554800F00DFF64
:101F80004021534800F0F4FE47208DF84000002027
:101F90008DF841008DF8420001208DF8430010A813
:101FA00000F038FB45208DF8400000208DF84100FE
:101FB00001208DF842008DF8430010A800F02AFBA4
:101FC0000121880500F0DAFB4348FFF773FC00BFEE
:101FD0004148FFF71BFD0028FAD14FF02060019027
:101FE0003B48001D02903D480390002004904E2085
:101FF0000590002006904FF4806007900020089024
:1020000009904FF480700A9000020B9000200C9011
:1020100003200D9000200E900F9001A92E48FFF78D
:102020001DFD012210212C48FFF7FAFC2C492A48FB
:10203000FFF700FC01212848FFF730FC012188054B
:1020400000F09CFB24487830FFF734FC00BF2248A6
:102050007830FFF7DBFC0028F9D14FF020600190C9
:102060001B48001D02901F4803904020049022202E
:102070000590002006904FF48060079000200890A3
:1020800009900A904FF440300B9000200C900320F0
:102090000D9000200E900F9001A90F487830FFF7A7
:1020A000DDFC00210C487830FFF7F8FB01221021FD
:1020B00009487830FFF7B4FC4FF480510348FFF72C
:1020C000B9FD17B000BD0000000802400018024032
:1020D00000140140808D5B0028640240CE03002084
:1020E000000800108204002010B54FF4805104480D
:1020F000FFF7A2FD01210348FFF7D0FB10BD000050
:1021000000180240A064024000B597B001214804C5
:1021100000F044FB0121084600F030FB0121402083
:1021200000F02CFB072202218048FFF760FD072208
:1021300003217E48FFF75BFD4FF40050159001200E
:102140008DF8580002208DF8590015A97848FFF73E
:1021500006FD4FF400517648FFF76EFD01217548EA
:1021600000F0EAFE0420159002208DF858008DF84A
:10217000590001208DF85B0000208DF85A0015A948
:102180006A48FFF7ECFC0820159002208DF85800F3
:1021900015A96648FFF7E3FC674811900020ADF8E9
:1021A0004800ADF84A00ADF84C00ADF850000C20E6
:1021B000ADF84E0011A95F4800F054FE012240F234
:1021C00024415C4800F029FE01215A4800F0D9FD65
:1021D00001224021574800F0E0FD012280215548AE
:1021E00000F0DBFD4021534800F0C2FD26208DF8B1
:1021F000400000208DF841008DF8420001208DF84C
:10220000430010A800F006FA11208DF840000020CD
:102210008DF8410001208DF842008DF8430010A890
:1022200000F0F8F90121480500F0A8FA4348FFF74B
:1022300041FB00BF4148FFF7E9FB0028FAD14FF00E
:10224000006001903B48001D02903D480390002033
:1022500004904E200590002006904FF48060079077
:102260000020089009904FF480700A9000020B90B3
:1022700000200C9003200D9000200E900F9001A9DB
:102280002E48FFF7EBFB012210212C48FFF7C8FB7B
:102290002C492A48FFF7CEFA01212848FFF7FEFA19
:1022A0000121480500F06AFA24481830FFF702FBC4
:1022B00000BF22481830FFF7A9FB0028F9D14FF0E2
:1022C000006001901B48001D02901F4803904020B1
:1022D000049022200590002006904FF48060079023
:1022E0000020089009900A904FF440300B90002095
:1022F0000C9003200D9000200E900F9001A90F4824
:102300001830FFF7ABFB00210C481830FFF7C6FA76
:102310000122102109481830FFF782FB4FF40051C9
:102320000348FFF787FC17B000BD00000000024023
:102330000018024000440040003E4900886002400E
:10234000E4020020000800201C04002010B54FF417
:1023500000510448FFF770FC01210348FFF79EFA83
:1023600010BD000000180240A060024000B597B008
:102370000121080500F012FA0121042000F0FEF905
:102380000121082000F0FAF90121402000F0F6F9BF
:1023900008220C218048FFF72AFC082202217F48EE
:1023A000FFF725FC4FF48040159001208DF8580070
:1023B00002208DF8590015A97948FFF7D0FB4FF49A
:1023C00080417748FFF738FC0121764800F0B4FDE2
:1023D0004FF48050159002208DF858008DF8590068
:1023E00001208DF85B0000208DF85A0015A96A487D
:1023F000FFF7B5FB0420159002208DF8580015A9B1
:102400006648FFF7ACFB684811900020ADF8480023
:10241000ADF84A00ADF84C00ADF850000C20ADF816
:102420004E0011A95F4800F01DFD012240F2244139
:102430005C4800F0F2FC01215A4800F0A2FC0122A5
:102440004021584800F0A9FC01228021554800F0A5
:10245000A4FC4021534800F08BFC35208DF840004F
:1024600000208DF841008DF8420001208DF84300D6
:1024700010A800F0CFF82F208DF8400000208DF834
:10248000410001208DF842008DF8430010A800F0B3
:10249000C1F80121480500F071F94448FFF70AFA34
:1024A00000BF4248FFF7B2FA0028FAD14FF00060AF
:1024B00001903C48001D02903D480390002004908C
:1024C0004E200590002006904FF480600790002079
:1024D000089009904FF480700A9000020B90002041
:1024E0000C9003200D9000200E900F9001A92F4812
:1024F000FFF7B4FA012210212C48FFF791FA2D4979
:102500002A48FFF797F901212848FFF7C7F9012169
:10251000480500F033F92548A830FFF7CBF900BF94
:102520002248A830FFF772FA0028F9D14FF0006076
:1025300001901C48001D02901F4803904020049009
:1025400022200590002006904FF480600790002024
:10255000089009900A904FF440300B9000200C90A6
:1025600003200D9000200E900F9001A90F48A83075
:10257000FFF774FA00210D48A830FFF78FF9012208
:1025800010210A48A830FFF74BFA4FF48041044865
:10259000FFF750FB17B000BD00080240000C0240DE
:1025A0000018024000500040003E49001060024008
:1025B00032030020200000103E04002010B54FF42C
:1025C00080410448FFF738FB01210348FFF766F913
:1025D00010BD000000180240B860024000BFFEE7D6
:1025E00070B504460E46154684F822602585002005
:1025F0006085204600F0C6FD70BD000010B50348A0
:10260000FEF7FEF8012000F0EBFC10BDA404002052
:102610007047000070B5002100230F22C4781CB35E
:10262000174C246804F4E064C4F5E064C4F30721A3
:10263000C1F10404E3B20A4144789C40E1B28478D9
:10264000144021430C07210E0E4C05786155047887
:1026500004F01F050124AC4005786D11AD0005F1B3
:10266000E025C5F8004109E0047804F01F050124C5
:10267000AC40054D0678761145F8264070BD000047
:102680000CED00E000E400E080E100E000B587B080
:102690000121880400F082F80121022000F06EF888
:1026A0000121082000F06AF8072209212E48FFF7CF
:1026B0009EFA07220A212D48FFF799FA4FF400707D
:1026C000059002208DF818008DF8190001208DF872
:1026D0001B0000208DF81A0005A92348FFF73FFAD8
:1026E0004FF48060059002208DF8180005A91F485E
:1026F000FFF735FA01211E4800F01EFC1D4801902D
:102700000020ADF80800ADF80A00ADF80C00ADF8F7
:1027100010000C20ADF80E0001A9154800F0A2FB36
:10272000012240F22551124800F077FB01211048A8
:1027300000F027FB012240210D4800F02EFB402134
:102740000B4800F015FB27208DF8000001208DF8C4
:10275000010000208DF8020001208DF8030068467A
:10276000FFF758FF07B000BD000C02400004024014
:1027700000480040C0C62D007047000029B1064A3D
:1027800012680243044B1A6004E0034A1268824351
:10279000014B1A60704700003038024029B1064AE8
:1027A00012680243044B1A6004E0034A1268824331
:1027B000014B1A60704700004038024029B1064AB8
:1027C00012680243044B1A6004E0034A1268824311
:1027D000014B1A607047000044380240F0B50021F8
:1027E00000220024022500260223324F3F6807F012
:1027F0000C0121B1042905D0082937D105E02E4F5D
:10280000076036E02D4F076033E02A4F3F1F3F68D7
:10281000C7F38056274F3F1F3F6807F03F036EB155
:10282000264FB7FBF3F7DFF88CC0ACF1040CDCF8F3
:1028300000C0CCF3881C07FB0CF40CE01E4FB7FB68
:10284000F3F7DFF870C0ACF1040CDCF800C0CCF397
:10285000881C07FB0CF4174F3F1F3F68C7F3014765
:102860007F1C7D00B4FBF5F7076002E0124F0760A4
:1028700000BF00BF0F4F3F6807F0F0010909104F7C
:102880007A5C0768D74047600A4F3F6807F4E05119
:10289000890A0B4F7A5C4768D7408760054F3F68CD
:1028A00007F46041490B064F7A5C4768D740C76020
:1028B000F0BD0000083802400024F40000127A0045
:1028C0001400002070B50F484578C0780D4989780C
:1028D00040EA0126012D07DB0A48407909490979B8
:1028E00040EA01200849087007480078012807DB02
:1028F0000023044A044801783046FEF753F80446A2
:1029000070BD00006C0000203E00002010B50024C7
:102910000D48008820B900200C4908700C49087047
:102920000C4800F014FBC4B2084801780078401C41
:10293000064A1070084844540020084908800120C5
:102940000149088010BD0000340000203C00002038
:102950003D000020004800406C00002038000020AE
:10296000704700000CB500200190009034480068CA
:1029700040F480303249086000BF3148006800F4FC
:10298000003000900198401C0190009818B90198FF
:10299000B0F5A04FF1D12A48006800F4003010B122
:1029A0000120009001E0002000900098012846D10D
:1029B00023484030006840F0805021494031086091
:1029C0002048006840F440401E4908601C48083018
:1029D00000681B49083108600846006840F4004060
:1029E00008600846006840F4A05008601648091FB7
:1029F0000860081F006840F08070091F086000BF71
:102A00000F48006800F000700028F9D040F205700F
:102A10000E4908600A480830006820F003000849A1
:102A2000083108600846006840F00200086000BFF6
:102A300003480830006800F00C000828F8D10CBDED
:102A4000003802400070004008544007003C02403B
:102A5000042808D14FF0E021096941F004014FF04A
:102A6000E022116107E04FF0E021096921F0040143
:102A70004FF0E022116170477047000010B504204C
:102A8000FFF7E6FF094800680949B0FBF1F0094982
:102A900008800846008800EB4001C1EBC0104FF6EB
:102AA000FF7101EAC0000449088010BD0000002049
:102AB00040420F002C0000202E00002010B51548C9
:102AC000006840F47000134908601348006840F043
:102AD00001001149086000200F49083108600E48C4
:102AE00000680E4908400C4908600D48091D08603F
:102AF000081F006820F48020091F08600020064994
:102B00000C310860FFF72EFF4FF00060014980395B
:102B1000086010BD88ED00E000380240FFFFF6FEBF
:102B2000103000240EB501210420FFF737FE4FF6C8
:102B3000FF7001905320ADF800000020ADF80200B6
:102B4000ADF808006946044800F014F80121024875
:102B500000F004F80EBD00000008004021B102881A
:102B600042F00102028004E002884FF6FE731A4030
:102B70000280704700220288184B98420ED0184BF2
:102B800098420BD0B0F1804F08D0164B984205D038
:102B9000154B984202D0154B984204D14FF68F73D3
:102BA0001A404B881A43124B984207D0114B984257
:102BB00004D04FF6FF431A400B891A4302804B683A
:102BC000C3620B880385054B984202D0044B9842A0
:102BD00001D18B7A03860123838270470000014074
:102BE000000401400004004000080040000C0040C8
:102BF000001000400014004010B540F2244110487D
:102C000000F0E1F8D0B10E4800880D48808800211E
:102C10000C48FEF743FE0C490A48FEF70BFE0B4931
:102C20000848FEF721FE0320FDF7E6FC4E2105488B
:102C3000FEF740FF01210348FEF730FE10BD000003
:102C40000050004010600240200000102080001062
:102C500010B540F22441114800F0B5F8E8B10F4832
:102C60000088C4B20D488088C4B200210C48FEF729
:102C700015FE4FF081510A48FEF7DCFD094908486E
:102C8000FEF7F2FD0020FDF7B7FC4E210448FEF7E9
:102C900011FF01210248FEF701FE10BD00100140A6
:102CA000406402400080201010B540F224411048DA
:102CB00000F089F8D8B10E4800880D48001D008842
:102CC00000210C48FEF7EAFD0B490A48FEF7B2FD69
:102CD0000A490848FEF7C8FD0220FDF78DFC4E2189
:102CE0000448FEF7E7FE01210248FEF7D7FD10BDBC
:102CF0000044004088600240000800200088002056
:102D000010B540F22551034800F05DF808B1FFF717
:102D1000FDFD10BD0048004010B540F224411048B0
:102D200000F051F8D8B10E4800880D48001D008809
:102D300000210C48FEF7B2FD0B490A48FEF77AFD68
:102D40000A490848FEF790FD0120FDF755FC4E2189
:102D50000448FEF7AFFE01210248FEF79FFD10BDBB
:102D60000014014028640240000800100088001090
:102D700001F40072B2F5007F00D100BFCA430280A7
:102D8000704721B1828942F40052828104E0828935
:102D90004DF6FF731A40828170471AB1838A0B4344
:102DA000838202E0838A8B4383827047024600203D
:102DB000B1F5007F00D100BF13880B400BB101209B
:102DC00000E00020704770B5024600240023002573
:102DD000002040F66A16B14200D100BFC1F342158F
:102DE00001F01F03012606FA03F3012D02D1968993
:102DF000334006E0022D02D1168A334001E0968A64
:102E000033400C12012606FA04F41688344013B13C
:102E10000CB1012000E0002070BDF0B50346002495
:102E200000260025002040F66A17B94200D100BFF5
:102E30001846C1F3421401F01F06012707FA06F5F0
:102E4000012C01D10C3004E0022C01D1103000E043
:102E500014301AB107682F43076002E00768AF43D8
:102E60000760F0BD2DE9FF4705460E460024A14648
:102E700000BFA046B08900B100BF2C8A24F44054A2
:102E8000F08804432C82AC8941F20C608443B08802
:102E900031890843718908430443AC81AC8A24F426
:102EA0004074B0890443AC826846FFF797FC204821
:102EB000854202D01F48854202D1DDF80C9001E026
:102EC000DDF80890A88900F4004040B109EBC90082
:102ED00000EB091031684900B0FBF1F707E009EB9E
:102EE000C90000EB091031688900B0FBF1F76420DC
:102EF000B7FBF0F004012009642101FB1078A889D8
:102F000000F4004040B1322000EBC800B0FBF1F00B
:102F100000F00700044308E0322000EB08106421B1
:102F2000B0FBF1F000F00F0004432C81BDE8FF87F7
:102F3000001001400014014021B1828942F4004296
:102F4000828103E08289C2F30E02828170470146CA
:102F50008888C0F30800704700BFFEE702E008C899
:102F6000121F08C1002AFAD170477047002001E003
:102F700001C1121F002AFBD170470000F0B50246C4
:102F80000B4600240026601E144F002122E04FF063
:102F9000004452F82160002519E000F0004CBCF11B
:102FA000000F05D04000DFF834C080EA0C0000E0DC
:102FB000400006EA040CBCF1000F03D0DFF81CC08F
:102FC00080EA0C00640805F1010C0CF0FF05202DCF
:102FD000E3DB491C9942DAD3F0BD0000B71DC10400
:102FE0000146114A12884A434FF0E0235A610022F9
:102FF0009A611A46126942F001021A6100BF4FF04D
:10300000E022106900F001021AB100F48032002AB7
:10301000F5D04FF0E022126922F001024FF0E023D8
:103020001A6100229A6170472E00002010B52DED24
:10303000068B044612212046FFF7A0FFD4F84A1061
:10304000884207D0002084F8540094F85400BDEC66
:10305000068B10BDA07884F85500207984F85600BE
:1030600094F90600A065E07984F85C00B4F90C00DE
:1030700000EE100AB8EEC00ADFED1F0A80EE201A3B
:1030800084ED181AB4F90E0000EE100AB8EEC00A6A
:10309000DFED1A0A80EE201A84ED191A94ED040A65
:1030A00084ED1A0AB4F91A00E066D4F81E0000EEA6
:1030B000100AB8EEC00A10EE101A0846FDF7A6F97D
:1030C00041EC1A0B9FED0E0B53EC102BFDF79EF805
:1030D00041EC190B9FED0C0B53EC102BFDF708F98D
:1030E00041EC180BFDF7A5F92067012084F8540086
:1030F00094F85400ABE70000000080430000004358
:10310000A7E8482EFF211940000000000000D04031
:103110001948FFF763FB184840686422B0FBF2F1DE
:10312000481EB0F1807F00D31BE0481E4FF0E02224
:10313000506150170F22002807DA13071D0E0F4B9E
:1031400000F00F04241F1D5503E013071C0E0C4B49
:103150001C5400BF00204FF0E02290610720106156
:1031600000BFFFF78BFCFDF7FBFBFFF747FA01E021
:10317000FEF79AFAFCE700005C00002018ED00E082
:1031800000E400E010B52DED068B044622206062BD
:10319000FE202070EE20607094F82800A0700020BF
:1031A000E07094F82A002071FF2161710021A17163
:1031B000E171A16094ED0B0ADFED360A20EE200AE2
:1031C000BDEEC00A10EE100A01B2A18194ED0C0A06
:1031D000DFED310A20EE200ABDEEC00A10EE100A23
:1031E00001B2E18194ED0D0A10EE101A0846FDF7C8
:1031F0000DF941EC1A0B9FED290B53EC102BFDF749
:1032000077F841EC190B9FED270B53EC102BFCF7D3
:10321000FDFF41EC180BFDF7DAF8206194ED0E0A82
:10322000DFED220A20EE200ABDEEC00A10EE100AE1
:1032300001B2A18294F8220060B994ED0F0ADFED8B
:103240001C0A20EE200ABDEEC00A10EE100A01B2E0
:10325000E1820FE094F8220001280BD194ED0F0ACF
:10326000DFED140A20EE200ABDEEC00A10EE100AAF
:1032700001B2E182002121766176216CC4F81A1036
:1032800007212046FFF77AFEC4F81E00BDEC068B2E
:1032900010BD00000000804300000043A7E8482E56
:1032A000FF211940000000000000D0400000004550
:1032B0000000804400000044D832000800000020D4
:1032C0005C0000005C2F0008343300085C00002024
:1032D000EC0D00006C2F0008007A030A00000000CB
:1032E00000000000010203040607080900000000B6
:1032F000010203040102030406070809000000009C
:10330000240800400000000000000000010001004F
:1033100001000900000000000000000000000000A3
:103320000000010002000000010002000000010096
:043330000000010098
:040000050800018965
:00000001FF
